{
  "contractName": "CryptoRace",
  "abi": [
    {
      "constant": true,
      "inputs": [
        {
          "name": "",
          "type": "bytes32"
        }
      ],
      "name": "start",
      "outputs": [
        {
          "name": "",
          "type": "uint256"
        }
      ],
      "payable": false,
      "stateMutability": "view",
      "type": "function"
    },
    {
      "constant": true,
      "inputs": [
        {
          "name": "",
          "type": "bytes32"
        }
      ],
      "name": "tracks",
      "outputs": [
        {
          "name": "duration",
          "type": "uint256"
        },
        {
          "name": "betAmount",
          "type": "uint256"
        },
        {
          "name": "maxPlayers",
          "type": "uint256"
        },
        {
          "name": "numPlayers",
          "type": "uint256"
        }
      ],
      "payable": false,
      "stateMutability": "view",
      "type": "function"
    },
    {
      "constant": true,
      "inputs": [
        {
          "name": "",
          "type": "uint256"
        },
        {
          "name": "",
          "type": "bytes32"
        }
      ],
      "name": "rates",
      "outputs": [
        {
          "name": "",
          "type": "uint256"
        }
      ],
      "payable": false,
      "stateMutability": "view",
      "type": "function"
    },
    {
      "constant": true,
      "inputs": [
        {
          "name": "",
          "type": "bytes32"
        },
        {
          "name": "",
          "type": "uint256"
        }
      ],
      "name": "playerAddresses",
      "outputs": [
        {
          "name": "",
          "type": "address"
        }
      ],
      "payable": false,
      "stateMutability": "view",
      "type": "function"
    },
    {
      "constant": false,
      "inputs": [],
      "name": "renounceOwnership",
      "outputs": [],
      "payable": false,
      "stateMutability": "nonpayable",
      "type": "function"
    },
    {
      "constant": true,
      "inputs": [],
      "name": "owner",
      "outputs": [
        {
          "name": "",
          "type": "address"
        }
      ],
      "payable": false,
      "stateMutability": "view",
      "type": "function"
    },
    {
      "constant": true,
      "inputs": [
        {
          "name": "contractName",
          "type": "string"
        },
        {
          "name": "migrationId",
          "type": "string"
        }
      ],
      "name": "isMigrated",
      "outputs": [
        {
          "name": "",
          "type": "bool"
        }
      ],
      "payable": false,
      "stateMutability": "view",
      "type": "function"
    },
    {
      "constant": true,
      "inputs": [
        {
          "name": "",
          "type": "bytes32"
        },
        {
          "name": "",
          "type": "address"
        },
        {
          "name": "",
          "type": "uint256"
        }
      ],
      "name": "portfolios",
      "outputs": [
        {
          "name": "name",
          "type": "bytes32"
        },
        {
          "name": "value",
          "type": "uint256"
        }
      ],
      "payable": false,
      "stateMutability": "view",
      "type": "function"
    },
    {
      "constant": true,
      "inputs": [
        {
          "name": "",
          "type": "bytes32"
        },
        {
          "name": "",
          "type": "address"
        }
      ],
      "name": "playersInTrack",
      "outputs": [
        {
          "name": "",
          "type": "bool"
        }
      ],
      "payable": false,
      "stateMutability": "view",
      "type": "function"
    },
    {
      "constant": false,
      "inputs": [
        {
          "name": "_newOwner",
          "type": "address"
        }
      ],
      "name": "transferOwnership",
      "outputs": [],
      "payable": false,
      "stateMutability": "nonpayable",
      "type": "function"
    },
    {
      "anonymous": false,
      "inputs": [
        {
          "indexed": false,
          "name": "_id",
          "type": "bytes32"
        },
        {
          "indexed": false,
          "name": "_maxPlayers",
          "type": "uint256"
        },
        {
          "indexed": false,
          "name": "_betAmount",
          "type": "uint256"
        },
        {
          "indexed": false,
          "name": "_duration",
          "type": "uint256"
        }
      ],
      "name": "CreateTrack",
      "type": "event"
    },
    {
      "anonymous": false,
      "inputs": [
        {
          "indexed": false,
          "name": "addr",
          "type": "address"
        },
        {
          "indexed": false,
          "name": "amount",
          "type": "uint256"
        }
      ],
      "name": "Transfer",
      "type": "event"
    },
    {
      "anonymous": false,
      "inputs": [
        {
          "indexed": false,
          "name": "contractName",
          "type": "string"
        },
        {
          "indexed": false,
          "name": "migrationId",
          "type": "string"
        }
      ],
      "name": "Migrated",
      "type": "event"
    },
    {
      "anonymous": false,
      "inputs": [
        {
          "indexed": true,
          "name": "previousOwner",
          "type": "address"
        }
      ],
      "name": "OwnershipRenounced",
      "type": "event"
    },
    {
      "anonymous": false,
      "inputs": [
        {
          "indexed": true,
          "name": "previousOwner",
          "type": "address"
        },
        {
          "indexed": true,
          "name": "newOwner",
          "type": "address"
        }
      ],
      "name": "OwnershipTransferred",
      "type": "event"
    },
    {
      "constant": false,
      "inputs": [],
      "name": "initialize",
      "outputs": [],
      "payable": false,
      "stateMutability": "nonpayable",
      "type": "function"
    },
    {
      "constant": true,
      "inputs": [],
      "name": "getName",
      "outputs": [
        {
          "name": "",
          "type": "string"
        }
      ],
      "payable": false,
      "stateMutability": "view",
      "type": "function"
    },
    {
      "constant": false,
      "inputs": [
        {
          "name": "_id",
          "type": "bytes32"
        },
        {
          "name": "_maxPlayers",
          "type": "uint256"
        },
        {
          "name": "_betAmount",
          "type": "uint256"
        },
        {
          "name": "_duration",
          "type": "uint256"
        }
      ],
      "name": "createTrack",
      "outputs": [],
      "payable": false,
      "stateMutability": "nonpayable",
      "type": "function"
    },
    {
      "constant": false,
      "inputs": [
        {
          "name": "_id",
          "type": "bytes32"
        },
        {
          "name": "_names",
          "type": "bytes32[]"
        },
        {
          "name": "_amounts",
          "type": "uint256[]"
        },
        {
          "name": "_start",
          "type": "uint256"
        }
      ],
      "name": "joinToTrack",
      "outputs": [],
      "payable": true,
      "stateMutability": "payable",
      "type": "function"
    },
    {
      "constant": false,
      "inputs": [
        {
          "name": "_id",
          "type": "bytes32"
        },
        {
          "name": "_names",
          "type": "bytes32[]"
        },
        {
          "name": "_startRates",
          "type": "uint256[]"
        },
        {
          "name": "_endRates",
          "type": "uint256[]"
        }
      ],
      "name": "finishTrack",
      "outputs": [],
      "payable": false,
      "stateMutability": "nonpayable",
      "type": "function"
    },
    {
      "constant": true,
      "inputs": [
        {
          "name": "_trackId",
          "type": "bytes32"
        },
        {
          "name": "_addr",
          "type": "address"
        }
      ],
      "name": "getPortfolio",
      "outputs": [
        {
          "name": "",
          "type": "bytes32[]"
        },
        {
          "name": "",
          "type": "uint256[]"
        }
      ],
      "payable": false,
      "stateMutability": "view",
      "type": "function"
    },
    {
      "constant": true,
      "inputs": [
        {
          "name": "_trackId",
          "type": "bytes32"
        }
      ],
      "name": "getWinners",
      "outputs": [
        {
          "name": "",
          "type": "address[]"
        }
      ],
      "payable": false,
      "stateMutability": "view",
      "type": "function"
    },
    {
      "constant": true,
      "inputs": [
        {
          "name": "_trackId",
          "type": "bytes32"
        }
      ],
      "name": "getStats",
      "outputs": [
        {
          "name": "",
          "type": "address[]"
        },
        {
          "name": "",
          "type": "int256[]"
        }
      ],
      "payable": false,
      "stateMutability": "view",
      "type": "function"
    },
    {
      "constant": true,
      "inputs": [
        {
          "name": "_id",
          "type": "bytes32"
        },
        {
          "name": "_player",
          "type": "address"
        }
      ],
      "name": "getStat",
      "outputs": [
        {
          "name": "",
          "type": "int256"
        }
      ],
      "payable": false,
      "stateMutability": "view",
      "type": "function"
    },
    {
      "constant": true,
      "inputs": [
        {
          "name": "_names",
          "type": "bytes32[]"
        },
        {
          "name": "_time",
          "type": "uint256"
        }
      ],
      "name": "getRates",
      "outputs": [
        {
          "name": "",
          "type": "uint256[]"
        }
      ],
      "payable": false,
      "stateMutability": "view",
      "type": "function"
    }
  ],
  "bytecode": "0x6080604052336000806101000a81548173ffffffffffffffffffffffffffffffffffffffff021916908373ffffffffffffffffffffffffffffffffffffffff16021790555061257b806100536000396000f300608060405260043610610112576000357c0100000000000000000000000000000000000000000000000000000000900463ffffffff168063015a18ed14610117578063081090091461015c5780630bb700dc146101b65780630c3b26671461028457806317d7de7c146102d35780632f2712f8146103635780633130cd60146103c857806337a7fb7c14610441578063438a1771146104bc5780634a61fc1e14610581578063715018a6146106075780638129fc1c1461061e5780638da5cb5b14610635578063c0bac1a81461068c578063d2d2332a14610753578063d2e17910146107d1578063d98c15241461083a578063dbbb951414610928578063f2fde38b14610977578063fbd4710c146109ba575b600080fd5b34801561012357600080fd5b506101466004803603810190808035600019169060200190929190505050610a18565b6040518082815260200191505060405180910390f35b34801561016857600080fd5b5061018b6004803603810190808035600019169060200190929190505050610a30565b6040518085815260200184815260200183815260200182815260200194505050505060405180910390f35b3480156101c257600080fd5b506101e56004803603810190808035600019169060200190929190505050610a60565b604051808060200180602001838103835285818151815260200191508051906020019060200280838360005b8381101561022c578082015181840152602081019050610211565b50505050905001838103825284818151815260200191508051906020019060200280838360005b8381101561026e578082015181840152602081019050610253565b5050505090500194505050505060405180910390f35b34801561029057600080fd5b506102bd600480360381019080803590602001909291908035600019169060200190929190505050610c2e565b6040518082815260200191505060405180910390f35b3480156102df57600080fd5b506102e8610c53565b6040518080602001828103825283818151815260200191508051906020019080838360005b8381101561032857808201518184015260208101905061030d565b50505050905090810190601f1680156103555780820380516001836020036101000a031916815260200191505b509250505060405180910390f35b34801561036f57600080fd5b506103b26004803603810190808035600019169060200190929190803573ffffffffffffffffffffffffffffffffffffffff169060200190929190505050610c90565b6040518082815260200191505060405180910390f35b3480156103d457600080fd5b5061043f6004803603810190808035600019169060200190929190803590602001908201803590602001919091929391929390803590602001908201803590602001919091929391929390803590602001908201803590602001919091929391929390505050610dab565b005b34801561044d57600080fd5b5061047a60048036038101908080356000191690602001909291908035906020019092919050505061103c565b604051808273ffffffffffffffffffffffffffffffffffffffff1673ffffffffffffffffffffffffffffffffffffffff16815260200191505060405180910390f35b3480156104c857600080fd5b5061052a600480360381019080803590602001908201803590602001908080602002602001604051908101604052809392919081815260200183836020028082843782019150505050505091929192908035906020019092919050505061107e565b6040518080602001828103825283818151815260200191508051906020019060200280838360005b8381101561056d578082015181840152602081019050610552565b505050509050019250505060405180910390f35b34801561058d57600080fd5b506105b0600480360381019080803560001916906020019092919050505061113c565b6040518080602001828103825283818151815260200191508051906020019060200280838360005b838110156105f35780820151818401526020810190506105d8565b505050509050019250505060405180910390f35b34801561061357600080fd5b5061061c6113f1565b005b34801561062a57600080fd5b506106336114f3565b005b34801561064157600080fd5b5061064a6118c2565b604051808273ffffffffffffffffffffffffffffffffffffffff1673ffffffffffffffffffffffffffffffffffffffff16815260200191505060405180910390f35b34801561069857600080fd5b50610739600480360381019080803590602001908201803590602001908080601f0160208091040260200160405190810160405280939291908181526020018383808284378201915050505050509192919290803590602001908201803590602001908080601f01602080910402602001604051908101604052809392919081815260200183838082843782019150505050505091929192905050506118e7565b604051808215151515815260200191505060405180910390f35b34801561075f57600080fd5b506107ac6004803603810190808035600019169060200190929190803573ffffffffffffffffffffffffffffffffffffffff169060200190929190803590602001909291905050506119d3565b6040518083600019166000191681526020018281526020019250505060405180910390f35b3480156107dd57600080fd5b506108206004803603810190808035600019169060200190929190803573ffffffffffffffffffffffffffffffffffffffff169060200190929190505050611a20565b604051808215151515815260200191505060405180910390f35b34801561084657600080fd5b506108896004803603810190808035600019169060200190929190803573ffffffffffffffffffffffffffffffffffffffff169060200190929190505050611a4f565b604051808060200180602001838103835285818151815260200191508051906020019060200280838360005b838110156108d05780820151818401526020810190506108b5565b50505050905001838103825284818151815260200191508051906020019060200280838360005b838110156109125780820151818401526020810190506108f7565b5050505090500194505050505060405180910390f35b34801561093457600080fd5b506109756004803603810190808035600019169060200190929190803590602001909291908035906020019092919080359060200190929190505050611c18565b005b34801561098357600080fd5b506109b8600480360381019080803573ffffffffffffffffffffffffffffffffffffffff169060200190929190505050611d30565b005b610a16600480360381019080803560001916906020019092919080359060200190820180359060200191909192939192939080359060200190820180359060200191909192939192939080359060200190929190505050611d97565b005b60036020528060005260406000206000915090505481565b60026020528060005260406000206000915090508060000154908060010154908060020154908060030154905084565b606080610a6b612526565b60608060006002600088600019166000191681526020019081526020016000206080604051908101604052908160008201548152602001600182015481526020016002820154815260200160038201548152505093508360600151604051908082528060200260200182016040528015610af45781602001602082028038833980820191505090505b5092508360600151604051908082528060200260200182016040528015610b2a5781602001602082028038833980820191505090505b509150600090505b8360600151811015610c1f57600460008860001916600019168152602001908152602001600020600082815260200190815260200160002060009054906101000a900473ffffffffffffffffffffffffffffffffffffffff168382815181101515610b9957fe5b9060200190602002019073ffffffffffffffffffffffffffffffffffffffff16908173ffffffffffffffffffffffffffffffffffffffff1681525050610bf6878483815181101515610be757fe5b90602001906020020151610c90565b8282815181101515610c0457fe5b90602001906020020181815250508080600101915050610b32565b82829550955050505050915091565b6007602052816000526040600020602052806000526040600020600091509150505481565b60606040805190810160405280600a81526020017f43727970746f5261636500000000000000000000000000000000000000000000815250905090565b6000806000806060806060806000809750600360008c60001916600019168152602001908152602001600020549650600260008c6000191660001916815260200190815260200160002060000154600360008d6000191660001916815260200190815260200160002054019550610d078b8b611a4f565b94509450610d15858861107e565b9250610d21858761107e565b9150600090505b8451811015610d9a578381815181101515610d3f57fe5b90602001906020020151620186a08483815181101515610d5b57fe5b906020019060200201518484815181101515610d7357fe5b90602001906020020151811515610d8657fe5b040202880197508080600101915050610d28565b879850505050505050505092915050565b6000606060008092505b88889050831015610edd578686848181101515610dce57fe5b9050602002013560076000600360008e6000191660001916815260200190815260200160002054815260200190815260200160002060008b8b878181101515610e1357fe5b905060200201356000191660001916600019168152602001908152602001600020819055508484848181101515610e4657fe5b9050602002013560076000600260008e6000191660001916815260200190815260200160002060000154600360008f600019166000191681526020019081526020016000205401815260200190815260200160002060008b8b878181101515610eab57fe5b905060200201356000191660001916600019168152602001908152602001600020819055508280600101935050610db5565b610ee68a61113c565b91508151600260008c6000191660001916815260200190815260200160002060030154600260008d600019166000191681526020019081526020016000206001015402811515610f3257fe5b049050600092505b8151831015611030578183815181101515610f5157fe5b9060200190602002015173ffffffffffffffffffffffffffffffffffffffff166108fc829081150290604051600060405180830381858888f19350505050158015610fa0573d6000803e3d6000fd5b507f69ca02dd4edd7bf0a4abb9ed3b7af3f14778db5d61921c7dc7cd545266326de28284815181101515610fd057fe5b9060200190602002015182604051808373ffffffffffffffffffffffffffffffffffffffff1673ffffffffffffffffffffffffffffffffffffffff1681526020018281526020019250505060405180910390a18280600101935050610f3a565b50505050505050505050565b60046020528160005260406000206020528060005260406000206000915091509054906101000a900473ffffffffffffffffffffffffffffffffffffffff1681565b606080600084516040519080825280602002602001820160405280156110b35781602001602082028038833980820191505090505b509150600090505b84518110156111315760076000858152602001908152602001600020600086838151811015156110e757fe5b906020019060200201516000191660001916815260200190815260200160002054828281518110151561111657fe5b906020019060200201818152505080806001019150506110bb565b819250505092915050565b6060806060600080600080600080606060006111578c610a60565b995099506000975060009650600093505b6001895103841015611318578396508397505b88518810156111cb57888781518110151561119257fe5b9060200190602002015189898151811015156111aa57fe5b9060200190602002015112156111be578796505b878060010198505061117b565b838714156111d85761130b565b88848151811015156111e657fe5b906020019060200201519550888781518110151561120057fe5b90602001906020020151898581518110151561121857fe5b906020019060200201818152505085898881518110151561123557fe5b9060200190602002018181525050898481518110151561125157fe5b906020019060200201519450898781518110151561126b57fe5b906020019060200201518a8581518110151561128357fe5b9060200190602002019073ffffffffffffffffffffffffffffffffffffffff16908173ffffffffffffffffffffffffffffffffffffffff1681525050848a888151811015156112ce57fe5b9060200190602002019073ffffffffffffffffffffffffffffffffffffffff16908173ffffffffffffffffffffffffffffffffffffffff16815250505b8380600101945050611168565b611321896121ff565b9250826040519080825280602002602001820160405280156113525781602001602082028038833980820191505090505b50915060018951039050600093505b828410156113df5789818060019003925081518110151561137e57fe5b90602001906020020151828581518110151561139657fe5b9060200190602002019073ffffffffffffffffffffffffffffffffffffffff16908173ffffffffffffffffffffffffffffffffffffffff16815250508380600101945050611361565b819a5050505050505050505050919050565b6000809054906101000a900473ffffffffffffffffffffffffffffffffffffffff1673ffffffffffffffffffffffffffffffffffffffff163373ffffffffffffffffffffffffffffffffffffffff1614151561144c57600080fd5b6000809054906101000a900473ffffffffffffffffffffffffffffffffffffffff1673ffffffffffffffffffffffffffffffffffffffff167ff8df31144d9c2f0f6b59d69b8b98abd5459d07f2742c4df920b25aae33c6482060405160405180910390a260008060006101000a81548173ffffffffffffffffffffffffffffffffffffffff021916908373ffffffffffffffffffffffffffffffffffffffff160217905550565b6040805190810160405280600a81526020017f43727970746f52616365000000000000000000000000000000000000000000008152506040805190810160405280600181526020017f300000000000000000000000000000000000000000000000000000000000000081525061159e826040805190810160405280600b81526020017f696e697469616c697a6564000000000000000000000000000000000000000000815250612279565b6115a88282612279565b7fdd117a11c22118c9dee4b5a67ce578bc44529dce21ee0ccc439588fbb9fb4ea38282604051808060200180602001838103835285818151815260200191508051906020019080838360005b8381101561160f5780820151818401526020810190506115f4565b50505050905090810190601f16801561163c5780820380516001836020036101000a031916815260200191505b50838103825284818151815260200191508051906020019080838360005b8381101561167557808201518184015260208101905061165a565b50505050905090810190601f1680156116a25780820380516001836020036101000a031916815260200191505b5094505050505060405180910390a1600180836040518082805190602001908083835b6020831015156116ea57805182526020820191506020810190506020830392506116c5565b6001836020036101000a0380198251168184511680821785525050505050509050019150509081526020016040518091039020826040518082805190602001908083835b602083101515611753578051825260208201915060208101905060208303925061172e565b6001836020036101000a038019825116818451168082178552505050505050905001915050908152602001604051809103902060006101000a81548160ff021916908315150217905550600180836040518082805190602001908083835b6020831015156117d657805182526020820191506020810190506020830392506117b1565b6001836020036101000a03801982511681845116808217855250505050505090500191505090815260200160405180910390206040805190810160405280600b81526020017f696e697469616c697a65640000000000000000000000000000000000000000008152506040518082805190602001908083835b602083101515611874578051825260208201915060208101905060208303925061184f565b6001836020036101000a038019825116818451168082178552505050505050905001915050908152602001604051809103902060006101000a81548160ff0219169083151502179055505050565b6000809054906101000a900473ffffffffffffffffffffffffffffffffffffffff1681565b60006001836040518082805190602001908083835b60208310151561192157805182526020820191506020810190506020830392506118fc565b6001836020036101000a0380198251168184511680821785525050505050509050019150509081526020016040518091039020826040518082805190602001908083835b60208310151561198a5780518252602082019150602081019050602083039250611965565b6001836020036101000a038019825116818451168082178552505050505050905001915050908152602001604051809103902060009054906101000a900460ff16905092915050565b6006602052826000526040600020602052816000526040600020818154811015156119fa57fe5b906000526020600020906002020160009250925050508060000154908060010154905082565b60056020528160005260406000206020528060005260406000206000915091509054906101000a900460ff1681565b60608060608060006005604051908082528060200260200182016040528015611a875781602001602082028038833980820191505090505b5092506005604051908082528060200260200182016040528015611aba5781602001602082028038833980820191505090505b509150600090505b6005811015611c085760066000886000191660001916815260200190815260200160002060008773ffffffffffffffffffffffffffffffffffffffff1673ffffffffffffffffffffffffffffffffffffffff16815260200190815260200160002081815481101515611b3057fe5b9060005260206000209060020201600001548382815181101515611b5057fe5b90602001906020020190600019169081600019168152505060066000886000191660001916815260200190815260200160002060008773ffffffffffffffffffffffffffffffffffffffff1673ffffffffffffffffffffffffffffffffffffffff16815260200190815260200160002081815481101515611bcd57fe5b9060005260206000209060020201600101548282815181101515611bed57fe5b90602001906020020181815250508080600101915050611ac2565b8282945094505050509250929050565b83600060026000836000191660001916815260200190815260200160002060000154141515611c4657600080fd5b81600081111515611c5657600080fd5b8460028110151515611c6757600080fd5b6080604051908101604052808581526020018681526020018781526020016000815250600260008960001916600019168152602001908152602001600020600082015181600001556020820151816001015560408201518160020155606082015181600301559050507f1f1d3362367c75de0312cb2e5fccd4a7c455b14efe73bb7fc94a9ba7ff30dd658787878760405180856000191660001916815260200184815260200183815260200182815260200194505050505060405180910390a150505050505050565b6000809054906101000a900473ffffffffffffffffffffffffffffffffffffffff1673ffffffffffffffffffffffffffffffffffffffff163373ffffffffffffffffffffffffffffffffffffffff16141515611d8b57600080fd5b611d9481612322565b50565b6000808760006002600083600019166000191681526020019081526020016000206000015414151515611dc957600080fd5b88348060026000846000191660001916815260200190815260200160002060010154141515611df757600080fd5b89898080602002602001604051908101604052809392919081815260200183836020028082843782019150505050505088888080602002602001604051908101604052809392919081815260200183836020028082843782019150505050505080518251141515611ef6576040517f08c379a00000000000000000000000000000000000000000000000000000000081526004018080602001828103825260228152602001807f4e6f6e20657175616c206c656e677468206e616d657320616e6420616d6f756e81526020017f747300000000000000000000000000000000000000000000000000000000000081525060400191505060405180910390fd5b60058251141515611f6f576040517f08c379a000000000000000000000000000000000000000000000000000000000815260040180806020018281038252601f8152602001807f5265717569726564203520656c656d656e74206f6620706f727466696c696f0081525060200191505060405180910390fd5b8c600260008260001916600019168152602001908152602001600020600301546002600083600019166000191681526020019081526020016000206002015414151515611fbb57600080fd5b8d975060056000896000191660001916815260200190815260200160002060003373ffffffffffffffffffffffffffffffffffffffff1673ffffffffffffffffffffffffffffffffffffffff16815260200190815260200160002060009054906101000a900460ff1615151561203057600080fd5b60026000896000191660001916815260200190815260200160002060030154965033600460008a60001916600019168152602001908152602001600020600089815260200190815260200160002060006101000a81548173ffffffffffffffffffffffffffffffffffffffff021916908373ffffffffffffffffffffffffffffffffffffffff1602179055506001600560008a6000191660001916815260200190815260200160002060003373ffffffffffffffffffffffffffffffffffffffff1673ffffffffffffffffffffffffffffffffffffffff16815260200190815260200160002060006101000a81548160ff0219169083151502179055506121978e338f8f808060200260200160405190810160405280939291908181526020018383602002808284378201915050505050508e8e8080602002602001604051908101604052809392919081815260200183836020028082843782019150505050505061241c565b6002600089600019166000191681526020019081526020016000206003016000815480929190600101919050555060008911156121ef5788600360008a60001916600019168152602001908152602001600020819055505b5050505050505050505050505050565b600080600083519150600090505b835181101561226e5783600185510381518110151561222857fe5b90602001906020020151848281518110151561224057fe5b90602001906020020151141561225857819250612272565b818060019003925050808060010191505061220d565b8192505b5050919050565b61228382826118e7565b15151561231e576040517f08c379a00000000000000000000000000000000000000000000000000000000081526004018080602001828103825260328152602001807f52657175657374656420746172676574206d6967726174696f6e20494420686181526020017f7320616c7265616479206265656e2072756e000000000000000000000000000081525060400191505060405180910390fd5b5050565b600073ffffffffffffffffffffffffffffffffffffffff168173ffffffffffffffffffffffffffffffffffffffff161415151561235e57600080fd5b8073ffffffffffffffffffffffffffffffffffffffff166000809054906101000a900473ffffffffffffffffffffffffffffffffffffffff1673ffffffffffffffffffffffffffffffffffffffff167f8be0079c531659141344cd1fd0a4f28419497f9722a3daafe3b4186f6b6457e060405160405180910390a3806000806101000a81548173ffffffffffffffffffffffffffffffffffffffff021916908373ffffffffffffffffffffffffffffffffffffffff16021790555050565b60008090505b825181101561251f5760066000866000191660001916815260200190815260200160002060008573ffffffffffffffffffffffffffffffffffffffff1673ffffffffffffffffffffffffffffffffffffffff1681526020019081526020016000206040805190810160405280858481518110151561249c57fe5b9060200190602002015160001916815260200184848151811015156124bd57fe5b906020019060200201518152509080600181540180825580915050906001820390600052602060002090600202016000909192909190915060008201518160000190600019169055602082015181600101555050508080600101915050612422565b5050505050565b6080604051908101604052806000815260200160008152602001600081526020016000815250905600a165627a7a72305820838dddca844d1ffc480b1ed01bb29ee3cb3c4fbf15157ca887e795ef6e7abd520029",
  "source": "pragma solidity 0.4.24;\n\nimport \"zos-lib/contracts/migrations/Migratable.sol\";\nimport \"openzeppelin-solidity/contracts/ownership/Ownable.sol\";\n\ncontract CryptoRace is Ownable, Migratable {\n    uint constant MAX_PLAYERS = 6;\n    \n    struct Track {\n        uint duration;\n        uint betAmount;\n        uint maxPlayers;\n        uint numPlayers;\n    }\n    \n    struct Rate {\n        bytes32 name;\n        uint amount;\n    }\n    \n    struct Portfolio {\n        bytes32 name;\n        uint value;\n    }\n    \n    mapping(bytes32 => Track) public tracks;\n    mapping(bytes32 => uint) public start;\n    \n    mapping(bytes32 => mapping(uint => address)) public playerAddresses;\n    mapping(bytes32 => mapping(address => bool)) public playersInTrack;\n    mapping(bytes32 => mapping(address => Portfolio[])) public portfolios;\n    \n    mapping(uint => mapping(bytes32 => uint)) public rates;\n    \n    event CreateTrack(bytes32 _id, uint _maxPlayers, uint _betAmount, uint _duration);\n    event Transfer(address addr, uint amount);\n\n    modifier nonExistsTrack(bytes32 _id) {\n        require(tracks[_id].duration == 0);\n        _;\n    }\n    \n    modifier existsTrack(bytes32 _id) {\n        require(tracks[_id].duration != 0);\n        _;\n    }\n    \n    modifier joinAllowed(bytes32 _id) {\n        require(tracks[_id].maxPlayers != tracks[_id].numPlayers);\n        _;\n    }\n    \n    modifier validDuration(uint _duration) {\n        require(_duration > 0);\n        _;\n    }\n    \n    modifier validMaxPlayers(uint _maxPlayers) {\n        require(_maxPlayers >= 2);\n        _;\n    }\n    \n    modifier validBetAmount(uint _betAmount) {\n        require(_betAmount > 0);\n        _;\n    }\n    \n    modifier validDeposite(bytes32 _id, uint _deposite) {\n        require(tracks[_id].betAmount == _deposite);\n        _;\n    }\n    \n    modifier validPortfolio(bytes32[] _names, uint[] _amounts) {\n        require(_names.length == _amounts.length, \"Non equal length names and amounts\");\n        require(_names.length == 5, \"Required 5 element of portfilio\");\n        _;\n    }\n\n    function initialize() isInitializer(\"CryptoRace\", \"0\") public {}\n    \n    function getName() public view returns(string) {\n        return \"CryptoRace\";\n    }\n\n    // track section\n    function createTrack(bytes32 _id, uint _maxPlayers, uint _betAmount, uint _duration) \n        external\n        nonExistsTrack(_id)\n        validDuration(_duration)\n        validMaxPlayers(_maxPlayers)\n    {\n        tracks[_id] = Track(_duration, _betAmount, _maxPlayers, 0);\n        emit CreateTrack(_id, _maxPlayers, _betAmount, _duration);\n    }\n    \n    function joinToTrack(bytes32 _id, bytes32[] _names, uint[] _amounts, uint _start)\n        external payable\n        existsTrack(_id)\n        validDeposite(_id, msg.value)\n        validPortfolio(_names, _amounts)\n        joinAllowed(_id)\n    {\n        bytes32 trackId = _id;\n        require(!playersInTrack[trackId][msg.sender]);\n\n        uint numPlayers = tracks[trackId].numPlayers;\n        playerAddresses[trackId][numPlayers] = msg.sender;\n        playersInTrack[trackId][msg.sender] = true;\n        \n        _setPortfolio(_id, msg.sender, _names, _amounts);\n        \n        tracks[trackId].numPlayers++;\n        \n        if (_start > 0) {\n            start[trackId] = _start;\n        }\n    }\n    \n    function finishTrack(bytes32 _id, bytes32[] _names, uint[] _startRates, uint[] _endRates) external {\n        for (uint i = 0; i < _names.length; i++) {\n            rates[start[_id]][_names[i]] = _startRates[i];\n            rates[start[_id] + tracks[_id].duration][_names[i]] = _endRates[i];\n        }\n        \n        address[] memory winners = getWinners(_id);\n        \n        uint reward = (tracks[_id].betAmount * tracks[_id].numPlayers) / winners.length;\n        \n        for (i = 0; i < winners.length; i++) {\n            winners[i].transfer(reward);\n            emit Transfer(winners[i], reward);\n        }\n    }\n    \n    function getPortfolio(bytes32 _trackId, address _addr) public view returns (bytes32[], uint[]) {\n        bytes32[] memory n = new bytes32[](5);\n        uint[] memory v = new uint[](5);\n          \n        for (uint i = 0; i < 5; i++) {\n          n[i] = portfolios[_trackId][_addr][i].name;\n          v[i] = portfolios[_trackId][_addr][i].value;\n        }\n          \n        return(n, v);\n    }\n    \n    function _setPortfolio(bytes32 _id, address _player, bytes32[] _names, uint[] _amounts) internal {\n        for (uint i = 0; i < _names.length; i++) {\n            portfolios[_id][_player].push(Portfolio(_names[i], _amounts[i]));\n        }\n    }\n    \n    \n    function getWinners(bytes32 _trackId) public view returns (address[]) {\n        (address[] memory players, int[] memory points) = getStats(_trackId);\n    \n        uint i = 0;\n        uint w_min = 0;\n        int tmpI;\n        address tmpA;\n    \n        for(uint pos = 0; pos < points.length - 1; pos++) {\n          w_min = pos;\n          for(i = pos; i < points.length; i++) {\n            if(points[i] < points[w_min]) {\n              w_min = i;\n            }\n          }\n          if(w_min == pos) continue;\n          tmpI = points[pos];\n          points[pos] = points[w_min];\n          points[w_min] = tmpI;\n    \n          tmpA = players[pos];\n          players[pos] = players[w_min];\n          players[w_min] = tmpA;\n        }\n    \n        // i = 0;\n        uint count = countWinners(points);\n        address[] memory winners = new address[](count);\n    \n        // for (pos = players.length - 1; pos >= players.length - count; pos--) {\n        //   winners[i++] = players[pos];\n        // }\n        uint ind = points.length - 1;\n\n        for (pos = 0; pos < count; pos++) {\n            winners[pos] = players[ind--];\n        }\n    \n        return winners;\n    }\n    \n    function getStats(bytes32 _trackId) public view returns (address[], int[]) {\n        Track memory t = tracks[_trackId];\n        address[] memory players = new address[](t.numPlayers);\n        int[] memory points = new int[](t.numPlayers);\n    \n        for (uint i = 0; i < t.numPlayers; i++) {\n           players[i] = playerAddresses[_trackId][i];\n           points[i] = getStat(_trackId, players[i]);\n        }\n    \n        return (players, points);\n    }\n    \n    function getStat(bytes32 _id, address _player) public view returns (int) {\n        int points = 0;\n        uint startTime = start[_id];\n        uint endTime = start[_id] + tracks[_id].duration;\n        (bytes32[] memory names, uint[] memory amounts) = getPortfolio(_id, _player);\n        \n        uint[] memory ratesAtStart = getRates(names, startTime);\n        uint[] memory ratesAtEnd = getRates(names, endTime);\n    \n        for (uint i = 0; i < names.length; i++) {\n          points += int(ratesAtEnd[i] / ratesAtStart[i] * 100000 * amounts[i]);\n        }\n    \n        return points;\n    }\n    \n    function getRates(bytes32[] _names, uint _time) view public returns (uint[]) {\n        uint[] memory r = new uint[](_names.length);\n        for (uint i = 0; i < _names.length; i++) {\n            r[i] = rates[_time][_names[i]];\n        }\n        \n        return r;\n    }\n    \n    function countWinners(int[] memory _points) internal returns (uint) {\n        uint count = _points.length;\n        for (uint i = 0; i < _points.length; i++) {\n            if (_points[i] == _points[_points.length - 1]) {\n                return count;\n            } else {\n                count--;\n            }\n        }\n    \n        return count;\n    }\n}\n",
  "sourcePath": "/home/nemo/secret_tech/crypto-race-sc-zos/contracts/CryptoRace.sol",
  "compiler": {
    "name": "solc",
    "version": "0.4.24+commit.e67f0147.Emscripten.clang"
  },
  "schemaVersion": "2.0.1",
  "updatedAt": "2018-09-26T16:55:57.221Z"
}